{
    "_format": "hh-sol-artifact-1",
    "contractName": "FixedCarbonCreditMarketplace",
    "sourceName": "contracts/Transactions.sol",
    "abi": [
        {
            "inputs": [
                {
                    "internalType": "uint256",
                    "name": "initialPrice",
                    "type": "uint256"
                }
            ],
            "stateMutability": "nonpayable",
            "type": "constructor"
        },
        {
            "anonymous": false,
            "inputs": [
                {
                    "indexed": true,
                    "internalType": "address",
                    "name": "seller",
                    "type": "address"
                },
                {
                    "indexed": true,
                    "internalType": "address",
                    "name": "paymentAddress",
                    "type": "address"
                },
                {
                    "indexed": false,
                    "internalType": "uint256",
                    "name": "amount",
                    "type": "uint256"
                },
                {
                    "indexed": false,
                    "internalType": "uint256",
                    "name": "timestamp",
                    "type": "uint256"
                }
            ],
            "name": "CreditAddedToPool",
            "type": "event"
        },
        {
            "anonymous": false,
            "inputs": [
                {
                    "indexed": true,
                    "internalType": "uint256",
                    "name": "transactionId",
                    "type": "uint256"
                },
                {
                    "indexed": true,
                    "internalType": "address",
                    "name": "buyer",
                    "type": "address"
                },
                {
                    "indexed": false,
                    "internalType": "uint256",
                    "name": "amount",
                    "type": "uint256"
                },
                {
                    "indexed": false,
                    "internalType": "uint256",
                    "name": "totalPrice",
                    "type": "uint256"
                }
            ],
            "name": "CreditPurchased",
            "type": "event"
        },
        {
            "anonymous": false,
            "inputs": [
                {
                    "indexed": false,
                    "internalType": "string",
                    "name": "message",
                    "type": "string"
                }
            ],
            "name": "Error",
            "type": "event"
        },
        {
            "anonymous": false,
            "inputs": [
                {
                    "indexed": true,
                    "internalType": "address",
                    "name": "from",
                    "type": "address"
                },
                {
                    "indexed": false,
                    "internalType": "uint256",
                    "name": "amount",
                    "type": "uint256"
                }
            ],
            "name": "PaymentReceived",
            "type": "event"
        },
        {
            "anonymous": false,
            "inputs": [
                {
                    "indexed": true,
                    "internalType": "address",
                    "name": "to",
                    "type": "address"
                },
                {
                    "indexed": false,
                    "internalType": "uint256",
                    "name": "amount",
                    "type": "uint256"
                }
            ],
            "name": "PaymentSent",
            "type": "event"
        },
        {
            "anonymous": false,
            "inputs": [
                {
                    "indexed": false,
                    "internalType": "uint256",
                    "name": "oldPrice",
                    "type": "uint256"
                },
                {
                    "indexed": false,
                    "internalType": "uint256",
                    "name": "newPrice",
                    "type": "uint256"
                }
            ],
            "name": "PriceUpdated",
            "type": "event"
        },
        {
            "anonymous": false,
            "inputs": [
                {
                    "indexed": true,
                    "internalType": "uint256",
                    "name": "transactionId",
                    "type": "uint256"
                },
                {
                    "indexed": true,
                    "internalType": "address",
                    "name": "paymentAddress",
                    "type": "address"
                },
                {
                    "indexed": false,
                    "internalType": "uint256",
                    "name": "amount",
                    "type": "uint256"
                },
                {
                    "indexed": false,
                    "internalType": "uint256",
                    "name": "payment",
                    "type": "uint256"
                }
            ],
            "name": "SellerPaid",
            "type": "event"
        },
        {
            "anonymous": false,
            "inputs": [
                {
                    "indexed": true,
                    "internalType": "uint256",
                    "name": "transactionId",
                    "type": "uint256"
                }
            ],
            "name": "TransactionCompleted",
            "type": "event"
        },
        {
            "stateMutability": "payable",
            "type": "fallback"
        },
        {
            "inputs": [
                {
                    "internalType": "uint256",
                    "name": "amount",
                    "type": "uint256"
                },
                {
                    "internalType": "address",
                    "name": "paymentAddress",
                    "type": "address"
                }
            ],
            "name": "addCreditToPool",
            "outputs": [],
            "stateMutability": "nonpayable",
            "type": "function"
        },
        {
            "inputs": [
                {
                    "internalType": "address",
                    "name": "",
                    "type": "address"
                },
                {
                    "internalType": "uint256",
                    "name": "",
                    "type": "uint256"
                }
            ],
            "name": "buyerTransactions",
            "outputs": [
                {
                    "internalType": "uint256",
                    "name": "",
                    "type": "uint256"
                }
            ],
            "stateMutability": "view",
            "type": "function"
        },
        {
            "inputs": [],
            "name": "carbonCreditPrice",
            "outputs": [
                {
                    "internalType": "uint256",
                    "name": "",
                    "type": "uint256"
                }
            ],
            "stateMutability": "view",
            "type": "function"
        },
        {
            "inputs": [
                {
                    "internalType": "uint256",
                    "name": "",
                    "type": "uint256"
                }
            ],
            "name": "contributionQueue",
            "outputs": [
                {
                    "internalType": "address",
                    "name": "seller",
                    "type": "address"
                },
                {
                    "internalType": "address",
                    "name": "paymentAddress",
                    "type": "address"
                },
                {
                    "internalType": "uint256",
                    "name": "amount",
                    "type": "uint256"
                },
                {
                    "internalType": "uint256",
                    "name": "timestamp",
                    "type": "uint256"
                }
            ],
            "stateMutability": "view",
            "type": "function"
        },
        {
            "inputs": [
                {
                    "internalType": "address",
                    "name": "buyer",
                    "type": "address"
                }
            ],
            "name": "getBuyerTransactions",
            "outputs": [
                {
                    "internalType": "uint256[]",
                    "name": "",
                    "type": "uint256[]"
                }
            ],
            "stateMutability": "view",
            "type": "function"
        },
        {
            "inputs": [],
            "name": "getPoolInfo",
            "outputs": [
                {
                    "internalType": "uint256",
                    "name": "total",
                    "type": "uint256"
                },
                {
                    "internalType": "uint256",
                    "name": "contributionsCount",
                    "type": "uint256"
                }
            ],
            "stateMutability": "view",
            "type": "function"
        },
        {
            "inputs": [
                {
                    "internalType": "uint256",
                    "name": "index",
                    "type": "uint256"
                }
            ],
            "name": "getSellerContribution",
            "outputs": [
                {
                    "internalType": "address",
                    "name": "seller",
                    "type": "address"
                },
                {
                    "internalType": "address",
                    "name": "paymentAddress",
                    "type": "address"
                },
                {
                    "internalType": "uint256",
                    "name": "amount",
                    "type": "uint256"
                },
                {
                    "internalType": "uint256",
                    "name": "timestamp",
                    "type": "uint256"
                }
            ],
            "stateMutability": "view",
            "type": "function"
        },
        {
            "inputs": [
                {
                    "internalType": "address",
                    "name": "seller",
                    "type": "address"
                }
            ],
            "name": "getSellerTransactions",
            "outputs": [
                {
                    "internalType": "uint256[]",
                    "name": "",
                    "type": "uint256[]"
                }
            ],
            "stateMutability": "view",
            "type": "function"
        },
        {
            "inputs": [
                {
                    "internalType": "uint256",
                    "name": "transactionId",
                    "type": "uint256"
                }
            ],
            "name": "getTransactionDetails",
            "outputs": [
                {
                    "internalType": "address",
                    "name": "buyer",
                    "type": "address"
                },
                {
                    "internalType": "uint256",
                    "name": "amount",
                    "type": "uint256"
                },
                {
                    "internalType": "uint256",
                    "name": "totalPrice",
                    "type": "uint256"
                },
                {
                    "internalType": "uint256",
                    "name": "timestamp",
                    "type": "uint256"
                },
                {
                    "internalType": "bool",
                    "name": "completed",
                    "type": "bool"
                },
                {
                    "internalType": "address[]",
                    "name": "paymentAddresses",
                    "type": "address[]"
                },
                {
                    "internalType": "uint256[]",
                    "name": "paymentAmounts",
                    "type": "uint256[]"
                }
            ],
            "stateMutability": "view",
            "type": "function"
        },
        {
            "inputs": [],
            "name": "government",
            "outputs": [
                {
                    "internalType": "address",
                    "name": "",
                    "type": "address"
                }
            ],
            "stateMutability": "view",
            "type": "function"
        },
        {
            "inputs": [
                {
                    "internalType": "uint256",
                    "name": "amount",
                    "type": "uint256"
                }
            ],
            "name": "purchaseCredits",
            "outputs": [],
            "stateMutability": "payable",
            "type": "function"
        },
        {
            "inputs": [
                {
                    "internalType": "address",
                    "name": "",
                    "type": "address"
                },
                {
                    "internalType": "uint256",
                    "name": "",
                    "type": "uint256"
                }
            ],
            "name": "sellerTransactions",
            "outputs": [
                {
                    "internalType": "uint256",
                    "name": "",
                    "type": "uint256"
                }
            ],
            "stateMutability": "view",
            "type": "function"
        },
        {
            "inputs": [],
            "name": "totalPoolCredits",
            "outputs": [
                {
                    "internalType": "uint256",
                    "name": "",
                    "type": "uint256"
                }
            ],
            "stateMutability": "view",
            "type": "function"
        },
        {
            "inputs": [],
            "name": "transactionCount",
            "outputs": [
                {
                    "internalType": "uint256",
                    "name": "",
                    "type": "uint256"
                }
            ],
            "stateMutability": "view",
            "type": "function"
        },
        {
            "inputs": [
                {
                    "internalType": "uint256",
                    "name": "",
                    "type": "uint256"
                }
            ],
            "name": "transactions",
            "outputs": [
                {
                    "internalType": "uint256",
                    "name": "id",
                    "type": "uint256"
                },
                {
                    "internalType": "address",
                    "name": "buyer",
                    "type": "address"
                },
                {
                    "internalType": "uint256",
                    "name": "amount",
                    "type": "uint256"
                },
                {
                    "internalType": "uint256",
                    "name": "totalPrice",
                    "type": "uint256"
                },
                {
                    "internalType": "uint256",
                    "name": "timestamp",
                    "type": "uint256"
                },
                {
                    "internalType": "bool",
                    "name": "completed",
                    "type": "bool"
                }
            ],
            "stateMutability": "view",
            "type": "function"
        },
        {
            "inputs": [
                {
                    "internalType": "address",
                    "name": "newGovernment",
                    "type": "address"
                }
            ],
            "name": "transferGovernment",
            "outputs": [],
            "stateMutability": "nonpayable",
            "type": "function"
        },
        {
            "inputs": [
                {
                    "internalType": "uint256",
                    "name": "newPrice",
                    "type": "uint256"
                }
            ],
            "name": "updateCarbonCreditPrice",
            "outputs": [],
            "stateMutability": "nonpayable",
            "type": "function"
        },
        {
            "stateMutability": "payable",
            "type": "receive"
        }
    ],
    "bytecode": "0x6080604052600160025534801561001557600080fd5b50604051612b26380380612b26833981810160405281019061003791906100bf565b336000806101000a81548173ffffffffffffffffffffffffffffffffffffffff021916908373ffffffffffffffffffffffffffffffffffffffff16021790555080600181905550506100ec565b600080fd5b6000819050919050565b61009c81610089565b81146100a757600080fd5b50565b6000815190506100b981610093565b92915050565b6000602082840312156100d5576100d4610084565b5b60006100e3848285016100aa565b91505092915050565b612a2b806100fb6000396000f3fe6080604052600436106101025760003560e01c806360246c8811610095578063ace879c511610064578063ace879c51461040e578063b77bf6001461044b578063ba43693514610476578063bef101fb146104b6578063d0b673b4146104d257610157565b806360246c881461034c57806368cb0773146103785780638846ac51146103a15780639ace38c2146103cc57610157565b806341c6fd0d116100d157806341c6fd0d1461028057806347b54863146102bd5780634a08613f146102e65780635b5d4e731461032357610157565b80630fa683d3146101a75780631ac26fdb146101ea5780632672f526146102155780633d62759d1461024057610157565b36610157573373ffffffffffffffffffffffffffffffffffffffff167f6ef95f06320e7a25a04a175ca677b7052bdd97131872c2192525a629f51be7703460405161014d9190611edf565b60405180910390a2005b3373ffffffffffffffffffffffffffffffffffffffff167f6ef95f06320e7a25a04a175ca677b7052bdd97131872c2192525a629f51be7703460405161019d9190611edf565b60405180910390a2005b3480156101b357600080fd5b506101ce60048036038101906101c99190611f2b565b61050f565b6040516101e19796959493929190612130565b60405180910390f35b3480156101f657600080fd5b506101ff6106ce565b60405161020c9190611edf565b60405180910390f35b34801561022157600080fd5b5061022a6106d4565b60405161023791906121ad565b60405180910390f35b34801561024c57600080fd5b5061026760048036038101906102629190611f2b565b6106f8565b60405161027794939291906121c8565b60405180910390f35b34801561028c57600080fd5b506102a760048036038101906102a29190612239565b6107cf565b6040516102b49190611edf565b60405180910390f35b3480156102c957600080fd5b506102e460048036038101906102df9190612279565b610800565b005b3480156102f257600080fd5b5061030d60048036038101906103089190612239565b610c9a565b60405161031a9190611edf565b60405180910390f35b34801561032f57600080fd5b5061034a600480360381019061034591906122b9565b610ccb565b005b34801561035857600080fd5b50610361610e0b565b60405161036f9291906122e6565b60405180910390f35b34801561038457600080fd5b5061039f600480360381019061039a9190611f2b565b610e1f565b005b3480156103ad57600080fd5b506103b6610ef2565b6040516103c39190611edf565b60405180910390f35b3480156103d857600080fd5b506103f360048036038101906103ee9190611f2b565b610ef8565b6040516104059695949392919061230f565b60405180910390f35b34801561041a57600080fd5b50610435600480360381019061043091906122b9565b610f61565b6040516104429190612370565b60405180910390f35b34801561045757600080fd5b50610460610ff8565b60405161046d9190611edf565b60405180910390f35b34801561048257600080fd5b5061049d60048036038101906104989190611f2b565b61100e565b6040516104ad94939291906121c8565b60405180910390f35b6104d060048036038101906104cb9190611f2b565b61108e565b005b3480156104de57600080fd5b506104f960048036038101906104f491906122b9565b61150c565b6040516105069190612370565b60405180910390f35b6000806000806000606080876000600560008381526020019081526020016000206004015411610574576040517f08c379a000000000000000000000000000000000000000000000000000000000815260040161056b906123ef565b60405180910390fd5b6000600560008b815260200190815260200160002090508060010160009054906101000a900473ffffffffffffffffffffffffffffffffffffffff168160020154826003015483600401548460050160009054906101000a900460ff1685600601866007018180548060200260200160405190810160405280929190818152602001828054801561065a57602002820191906000526020600020905b8160009054906101000a900473ffffffffffffffffffffffffffffffffffffffff1673ffffffffffffffffffffffffffffffffffffffff1681526020019060010190808311610610575b50505050509150808054806020026020016040519081016040528092919081815260200182805480156106ac57602002820191906000526020600020905b815481526020019060010190808311610698575b5050505050905098509850985098509850985098505050919395979092949650565b60045481565b60008054906101000a900473ffffffffffffffffffffffffffffffffffffffff1681565b6000806000806003805490508510610745576040517f08c379a000000000000000000000000000000000000000000000000000000000815260040161073c9061245b565b60405180910390fd5b60006003868154811061075b5761075a61247b565b5b906000526020600020906004020190508060000160009054906101000a900473ffffffffffffffffffffffffffffffffffffffff168160010160009054906101000a900473ffffffffffffffffffffffffffffffffffffffff16826002015483600301549450945094509450509193509193565b600660205281600052604060002081815481106107eb57600080fd5b90600052602060002001600091509150505481565b60008211610843576040517f08c379a000000000000000000000000000000000000000000000000000000000815260040161083a906124f6565b60405180910390fd5b600073ffffffffffffffffffffffffffffffffffffffff168173ffffffffffffffffffffffffffffffffffffffff16036108b2576040517f08c379a00000000000000000000000000000000000000000000000000000000081526004016108a990612562565b60405180910390fd5b600360405180608001604052803373ffffffffffffffffffffffffffffffffffffffff1681526020018373ffffffffffffffffffffffffffffffffffffffff16815260200184815260200142815250908060018154018082558091505060019003906000526020600020906004020160009091909190915060008201518160000160006101000a81548173ffffffffffffffffffffffffffffffffffffffff021916908373ffffffffffffffffffffffffffffffffffffffff16021790555060208201518160010160006101000a81548173ffffffffffffffffffffffffffffffffffffffff021916908373ffffffffffffffffffffffffffffffffffffffff1602179055506040820151816002015560608201518160030155505081600460008282546109e091906125b1565b925050819055506000600260008154809291906109fc906125e5565b919050559050604051806101000160405280828152602001600073ffffffffffffffffffffffffffffffffffffffff16815260200184815260200160008152602001428152602001600115158152602001600067ffffffffffffffff811115610a6857610a6761262d565b5b604051908082528060200260200182016040528015610a965781602001602082028036833780820191505090505b508152602001600067ffffffffffffffff811115610ab757610ab661262d565b5b604051908082528060200260200182016040528015610ae55781602001602082028036833780820191505090505b50815250600560008381526020019081526020016000206000820151816000015560208201518160010160006101000a81548173ffffffffffffffffffffffffffffffffffffffff021916908373ffffffffffffffffffffffffffffffffffffffff16021790555060408201518160020155606082015181600301556080820151816004015560a08201518160050160006101000a81548160ff02191690831515021790555060c0820151816006019080519060200190610ba7929190611dd2565b5060e0820151816007019080519060200190610bc4929190611e5c565b50905050600760003373ffffffffffffffffffffffffffffffffffffffff1673ffffffffffffffffffffffffffffffffffffffff1681526020019081526020016000208190806001815401808255809150506001900390600052602060002001600090919091909150558173ffffffffffffffffffffffffffffffffffffffff163373ffffffffffffffffffffffffffffffffffffffff167f028a9522cc927cce8a7d1d6fe02f37cc2aea3b575fce222817268350ad3f44518542604051610c8d9291906122e6565b60405180910390a3505050565b60076020528160005260406000208181548110610cb657600080fd5b90600052602060002001600091509150505481565b60008054906101000a900473ffffffffffffffffffffffffffffffffffffffff1673ffffffffffffffffffffffffffffffffffffffff163373ffffffffffffffffffffffffffffffffffffffff1614610d59576040517f08c379a0000000000000000000000000000000000000000000000000000000008152600401610d50906126ce565b60405180910390fd5b600073ffffffffffffffffffffffffffffffffffffffff168173ffffffffffffffffffffffffffffffffffffffff1603610dc8576040517f08c379a0000000000000000000000000000000000000000000000000000000008152600401610dbf9061273a565b60405180910390fd5b806000806101000a81548173ffffffffffffffffffffffffffffffffffffffff021916908373ffffffffffffffffffffffffffffffffffffffff16021790555050565b600080600454600380549050915091509091565b60008054906101000a900473ffffffffffffffffffffffffffffffffffffffff1673ffffffffffffffffffffffffffffffffffffffff163373ffffffffffffffffffffffffffffffffffffffff1614610ead576040517f08c379a0000000000000000000000000000000000000000000000000000000008152600401610ea4906126ce565b60405180910390fd5b7f945c1c4e99aa89f648fbfe3df471b916f719e16d960fcec0737d4d56bd69683860015482604051610ee09291906122e6565b60405180910390a18060018190555050565b60015481565b60056020528060005260406000206000915090508060000154908060010160009054906101000a900473ffffffffffffffffffffffffffffffffffffffff16908060020154908060030154908060040154908060050160009054906101000a900460ff16905086565b6060600760008373ffffffffffffffffffffffffffffffffffffffff1673ffffffffffffffffffffffffffffffffffffffff168152602001908152602001600020805480602002602001604051908101604052809291908181526020018280548015610fec57602002820191906000526020600020905b815481526020019060010190808311610fd8575b50505050509050919050565b60006001600254611009919061275a565b905090565b6003818154811061101e57600080fd5b90600052602060002090600402016000915090508060000160009054906101000a900473ffffffffffffffffffffffffffffffffffffffff16908060010160009054906101000a900473ffffffffffffffffffffffffffffffffffffffff16908060020154908060030154905084565b600081116110d1576040517f08c379a00000000000000000000000000000000000000000000000000000000081526004016110c8906124f6565b60405180910390fd5b600454811115611116576040517f08c379a000000000000000000000000000000000000000000000000000000000815260040161110d906127da565b60405180910390fd5b60006001548261112691906127fa565b90508034101561116b576040517f08c379a000000000000000000000000000000000000000000000000000000000815260040161116290612888565b60405180910390fd5b600060026000815480929190611180906125e5565b9190505590506000600560008381526020019081526020016000209050818160000181905550338160010160006101000a81548173ffffffffffffffffffffffffffffffffffffffff021916908373ffffffffffffffffffffffffffffffffffffffff16021790555083816002018190555082816003018190555042816004018190555060008160050160006101000a81548160ff021916908315150217905550600067ffffffffffffffff81111561123c5761123b61262d565b5b60405190808252806020026020018201604052801561126a5781602001602082028036833780820191505090505b50816006019080519060200190611282929190611dd2565b50600067ffffffffffffffff81111561129e5761129d61262d565b5b6040519080825280602002602001820160405280156112cc5781602001602082028036833780820191505090505b508160070190805190602001906112e4929190611e5c565b50600660003373ffffffffffffffffffffffffffffffffffffffff1673ffffffffffffffffffffffffffffffffffffffff1681526020019081526020016000208290806001815401808255809150506001900390600052602060002001600090919091909150553373ffffffffffffffffffffffffffffffffffffffff16827fa436957e21298b0f5d9f20d261e292a18aed3d50a9467953f5fcbdf1e82e1bc286866040516113949291906122e6565b60405180910390a36113a682856115a3565b60018160050160006101000a81548160ff021916908315150217905550817f161186077e0cdfa49fae16d54ce01ea091439dbf14243419593fa6c051c906c860405160405180910390a2600083346113fe919061275a565b905060008111156115055760003373ffffffffffffffffffffffffffffffffffffffff168260405161142f906128d9565b60006040518083038185875af1925050503d806000811461146c576040519150601f19603f3d011682016040523d82523d6000602084013e611471565b606091505b50509050806114b4577f08c379a0afcc32b1a39302f7cb8073359698411ab5fd6e3edb2c02c0b5fba8aa6040516114a79061293a565b60405180910390a1611503565b3373ffffffffffffffffffffffffffffffffffffffff167f47db2abce6d5fbcd80ffd9b4ba74dcde804a746ef732bc7f8a70fabfc912c590836040516114fa9190611edf565b60405180910390a25b505b5050505050565b6060600660008373ffffffffffffffffffffffffffffffffffffffff1673ffffffffffffffffffffffffffffffffffffffff16815260200190815260200160002080548060200260200160405190810160405280929190818152602001828054801561159757602002820191906000526020600020905b815481526020019060010190808311611583575b50505050509050919050565b60008190506000806005600086815260200190815260200160002090505b6000831180156115d5575060038054905082105b15611bb6576000600383815481106115f0576115ef61247b565b5b9060005260206000209060040201905060008160010160009054906101000a900473ffffffffffffffffffffffffffffffffffffffff169050848260020154116118f7576000600154836002015461164891906127fa565b905083600601829080600181540180825580915050600190039060005260206000200160009091909190916101000a81548173ffffffffffffffffffffffffffffffffffffffff021916908373ffffffffffffffffffffffffffffffffffffffff16021790555083600701819080600181540180825580915050600190039060005260206000200160009091909190915055600760008460000160009054906101000a900473ffffffffffffffffffffffffffffffffffffffff1673ffffffffffffffffffffffffffffffffffffffff1673ffffffffffffffffffffffffffffffffffffffff16815260200190815260200160002088908060018154018082558091505060019003906000526020600020016000909190919091505560008273ffffffffffffffffffffffffffffffffffffffff168260405161178a906128d9565b60006040518083038185875af1925050503d80600081146117c7576040519150601f19603f3d011682016040523d82523d6000602084013e6117cc565b606091505b505090508061180f577f08c379a0afcc32b1a39302f7cb8073359698411ab5fd6e3edb2c02c0b5fba8aa604051611802906129a6565b60405180910390a16118b3565b8273ffffffffffffffffffffffffffffffffffffffff167f47db2abce6d5fbcd80ffd9b4ba74dcde804a746ef732bc7f8a70fabfc912c590836040516118559190611edf565b60405180910390a28273ffffffffffffffffffffffffffffffffffffffff16897f0ffe37e7beb99346a469051f81302bb7ec67c88257706c78beb7f88a11bc28d58660020154856040516118aa9291906122e6565b60405180910390a35b8360020154876118c3919061275a565b96508360020154600460008282546118db919061275a565b9250508190555085806118ed906125e5565b9650505050611baf565b600085905060006001548261190c91906127fa565b905084600601839080600181540180825580915050600190039060005260206000200160009091909190916101000a81548173ffffffffffffffffffffffffffffffffffffffff021916908373ffffffffffffffffffffffffffffffffffffffff16021790555084600701819080600181540180825580915050600190039060005260206000200160009091909190915055600760008560000160009054906101000a900473ffffffffffffffffffffffffffffffffffffffff1673ffffffffffffffffffffffffffffffffffffffff1673ffffffffffffffffffffffffffffffffffffffff16815260200190815260200160002089908060018154018082558091505060019003906000526020600020016000909190919091505560008373ffffffffffffffffffffffffffffffffffffffff1682604051611a4e906128d9565b60006040518083038185875af1925050503d8060008114611a8b576040519150601f19603f3d011682016040523d82523d6000602084013e611a90565b606091505b5050905080611ad3577f08c379a0afcc32b1a39302f7cb8073359698411ab5fd6e3edb2c02c0b5fba8aa604051611ac6906129a6565b60405180910390a1611b73565b8373ffffffffffffffffffffffffffffffffffffffff167f47db2abce6d5fbcd80ffd9b4ba74dcde804a746ef732bc7f8a70fabfc912c59083604051611b199190611edf565b60405180910390a28373ffffffffffffffffffffffffffffffffffffffff168a7f0ffe37e7beb99346a469051f81302bb7ec67c88257706c78beb7f88a11bc28d58585604051611b6a9291906122e6565b60405180910390a35b82856002016000828254611b87919061275a565b925050819055508260046000828254611ba0919061275a565b92505081905550600097505050505b50506115c1565b6000821115611bc957611bc882611bd0565b5b5050505050565b60005b81600380549050611be4919061275a565b811015611d2c5760038282611bf991906125b1565b81548110611c0a57611c0961247b565b5b906000526020600020906004020160038281548110611c2c57611c2b61247b565b5b90600052602060002090600402016000820160009054906101000a900473ffffffffffffffffffffffffffffffffffffffff168160000160006101000a81548173ffffffffffffffffffffffffffffffffffffffff021916908373ffffffffffffffffffffffffffffffffffffffff1602179055506001820160009054906101000a900473ffffffffffffffffffffffffffffffffffffffff168160010160006101000a81548173ffffffffffffffffffffffffffffffffffffffff021916908373ffffffffffffffffffffffffffffffffffffffff16021790555060028201548160020155600382015481600301559050508080600101915050611bd3565b5060005b81811015611dce576003805480611d4a57611d496129c6565b5b6001900381819060005260206000209060040201600080820160006101000a81549073ffffffffffffffffffffffffffffffffffffffff02191690556001820160006101000a81549073ffffffffffffffffffffffffffffffffffffffff021916905560028201600090556003820160009055505090558080600101915050611d30565b5050565b828054828255906000526020600020908101928215611e4b579160200282015b82811115611e4a5782518260006101000a81548173ffffffffffffffffffffffffffffffffffffffff021916908373ffffffffffffffffffffffffffffffffffffffff16021790555091602001919060010190611df2565b5b509050611e589190611ea9565b5090565b828054828255906000526020600020908101928215611e98579160200282015b82811115611e97578251825591602001919060010190611e7c565b5b509050611ea59190611ea9565b5090565b5b80821115611ec2576000816000905550600101611eaa565b5090565b6000819050919050565b611ed981611ec6565b82525050565b6000602082019050611ef46000830184611ed0565b92915050565b600080fd5b611f0881611ec6565b8114611f1357600080fd5b50565b600081359050611f2581611eff565b92915050565b600060208284031215611f4157611f40611efa565b5b6000611f4f84828501611f16565b91505092915050565b600073ffffffffffffffffffffffffffffffffffffffff82169050919050565b6000611f8382611f58565b9050919050565b611f9381611f78565b82525050565b60008115159050919050565b611fae81611f99565b82525050565b600081519050919050565b600082825260208201905092915050565b6000819050602082019050919050565b611fe981611f78565b82525050565b6000611ffb8383611fe0565b60208301905092915050565b6000602082019050919050565b600061201f82611fb4565b6120298185611fbf565b935061203483611fd0565b8060005b8381101561206557815161204c8882611fef565b975061205783612007565b925050600181019050612038565b5085935050505092915050565b600081519050919050565b600082825260208201905092915050565b6000819050602082019050919050565b6120a781611ec6565b82525050565b60006120b9838361209e565b60208301905092915050565b6000602082019050919050565b60006120dd82612072565b6120e7818561207d565b93506120f28361208e565b8060005b8381101561212357815161210a88826120ad565b9750612115836120c5565b9250506001810190506120f6565b5085935050505092915050565b600060e082019050612145600083018a611f8a565b6121526020830189611ed0565b61215f6040830188611ed0565b61216c6060830187611ed0565b6121796080830186611fa5565b81810360a083015261218b8185612014565b905081810360c083015261219f81846120d2565b905098975050505050505050565b60006020820190506121c26000830184611f8a565b92915050565b60006080820190506121dd6000830187611f8a565b6121ea6020830186611f8a565b6121f76040830185611ed0565b6122046060830184611ed0565b95945050505050565b61221681611f78565b811461222157600080fd5b50565b6000813590506122338161220d565b92915050565b600080604083850312156122505761224f611efa565b5b600061225e85828601612224565b925050602061226f85828601611f16565b9150509250929050565b600080604083850312156122905761228f611efa565b5b600061229e85828601611f16565b92505060206122af85828601612224565b9150509250929050565b6000602082840312156122cf576122ce611efa565b5b60006122dd84828501612224565b91505092915050565b60006040820190506122fb6000830185611ed0565b6123086020830184611ed0565b9392505050565b600060c0820190506123246000830189611ed0565b6123316020830188611f8a565b61233e6040830187611ed0565b61234b6060830186611ed0565b6123586080830185611ed0565b61236560a0830184611fa5565b979650505050505050565b6000602082019050818103600083015261238a81846120d2565b905092915050565b600082825260208201905092915050565b7f5472616e73616374696f6e20646f6573206e6f74206578697374000000000000600082015250565b60006123d9601a83612392565b91506123e4826123a3565b602082019050919050565b60006020820190508181036000830152612408816123cc565b9050919050565b7f496e646578206f7574206f6620626f756e647300000000000000000000000000600082015250565b6000612445601383612392565b91506124508261240f565b602082019050919050565b6000602082019050818103600083015261247481612438565b9050919050565b7f4e487b7100000000000000000000000000000000000000000000000000000000600052603260045260246000fd5b7f416d6f756e74206d7573742062652067726561746572207468616e207a65726f600082015250565b60006124e0602083612392565b91506124eb826124aa565b602082019050919050565b6000602082019050818103600083015261250f816124d3565b9050919050565b7f5061796d656e7420616464726573732063616e6e6f74206265207a65726f0000600082015250565b600061254c601e83612392565b915061255782612516565b602082019050919050565b6000602082019050818103600083015261257b8161253f565b9050919050565b7f4e487b7100000000000000000000000000000000000000000000000000000000600052601160045260246000fd5b60006125bc82611ec6565b91506125c783611ec6565b92508282019050808211156125df576125de612582565b5b92915050565b60006125f082611ec6565b91507fffffffffffffffffffffffffffffffffffffffffffffffffffffffffffffffff820361262257612621612582565b5b600182019050919050565b7f4e487b7100000000000000000000000000000000000000000000000000000000600052604160045260246000fd5b7f4f6e6c7920676f7665726e6d656e742063616e2063616c6c207468697320667560008201527f6e6374696f6e0000000000000000000000000000000000000000000000000000602082015250565b60006126b8602683612392565b91506126c38261265c565b604082019050919050565b600060208201905081810360008301526126e7816126ab565b9050919050565b7f496e76616c696420616464726573730000000000000000000000000000000000600082015250565b6000612724600f83612392565b915061272f826126ee565b602082019050919050565b6000602082019050818103600083015261275381612717565b9050919050565b600061276582611ec6565b915061277083611ec6565b925082820390508181111561278857612787612582565b5b92915050565b7f4e6f7420656e6f756768206372656469747320696e2074686520706f6f6c0000600082015250565b60006127c4601e83612392565b91506127cf8261278e565b602082019050919050565b600060208201905081810360008301526127f3816127b7565b9050919050565b600061280582611ec6565b915061281083611ec6565b925082820261281e81611ec6565b9150828204841483151761283557612834612582565b5b5092915050565b7f496e73756666696369656e74207061796d656e74000000000000000000000000600082015250565b6000612872601483612392565b915061287d8261283c565b602082019050919050565b600060208201905081810360008301526128a181612865565b9050919050565b600081905092915050565b50565b60006128c36000836128a8565b91506128ce826128b3565b600082019050919050565b60006128e4826128b6565b9150819050919050565b7f526566756e64206661696c656400000000000000000000000000000000000000600082015250565b6000612924600d83612392565b915061292f826128ee565b602082019050919050565b6000602082019050818103600083015261295381612917565b9050919050565b7f5061796d656e74207472616e73666572206661696c6564000000000000000000600082015250565b6000612990601783612392565b915061299b8261295a565b602082019050919050565b600060208201905081810360008301526129bf81612983565b9050919050565b7f4e487b7100000000000000000000000000000000000000000000000000000000600052603160045260246000fdfea2646970667358221220fb10677fa0e57741d51ca7b4b2d4719130baf289505cead9c2b27ee8e3abfebb64736f6c634300081c0033",
    "linkReferences": {},
    "deployedLinkReferences": {}
}